:020000040800F2
:100000007006002045010008490100084B01000866
:100010004D0100084F0100085101000800000000D8
:100020000000000000000000000000005301000874
:1000300055010008000000005701000859010008A0
:100040005B0100085B0100085B0100085B01000820
:100050005B0100085B010008B50C0008D90C000822
:10006000F90C00080B0D00085B0100085B0100089B
:100070005B0100085B0100085B0100085B010008F0
:100080005B0100085B0100085B0100085B010008E0
:100090005B0100085B0100085B0100085B010008D0
:1000A0005B0100085B0100085B0100085B010008C0
:1000B0005B0100085B0100085B0100085B010008B0
:1000C0005B0100085B0100085B0100085B010008A0
:1000D0005B010008A92600085B0100085B0100081D
:1000E0005B0100085B0100085B0100085B01000880
:1000F0005B0100085B0100085B0100085B01000870
:100100005B0100085B010008192000085B01000882
:10011000C12400085B0100085B0100085B010008C6
:100120005B0100085B0100085B0100085B0100083F
:10013000DFF80CD000F0C2FB004800471938000877
:100140007006002005480047FEE7FEE7FEE7FEE7F1
:10015000FEE7FEE7FEE7FEE7FEE7FEE73101000807
:10016000F0B480EA0102D40F4200B2EB410F02D298
:100170000246084611464A0042D0C30DDDB2C1F323
:10018000C752AD1A202D35DAC1F3160141F4000231
:1001900004B15242C5F1200602FA06F12A41104488
:1001A000B3EBD05F23D0C4B1012DA0EBC35009DC69
:1001B000F0BC4FF0004202EAC352DBB200F500008F
:1001C00000F0F9B9400000F1807000EBC350A0F1DD
:1001D000807040EAD170490009E0490841EAC071E5
:1001E000A0EBC35000F50000400800EBC350F0BC8A
:1001F00000F0D8B96142012202EB4101001BF6E791
:10020000F0BC704781F00041AAE780F00040A7E70A
:1002100080EA010210B502F00043400022D04A00FB
:100220001FD0010E01EB1261C0F35600C2F356025B
:1002300040F4000042F40002A0FB022000047F39D9
:10024000140400D0401C50EA124001D44000491E62
:10025000C2B20C0604EBD010401C4008802A02D029
:1002600003E0002010BD20F00100002900DA00208A
:10027000184310BD30B480EA010202F0004530F0AE
:10028000004221F0004013D090B1C30DD40DC2F351
:100290001601C0F31600E41A41F4000140F4000214
:1002A0007D34914201D3641C00E04900002C02DA45
:1002B00030BC002070474FF400000023914201D36E
:1002C000891A034340084FEA4101F7D151B19142E5
:1002D00002D14FF0004105E002D24FF0010101E0F0
:1002E0006FF0010103EBC450284430BC00F05AB950
:1002F0002DE9FE4F81EA030404F0004421F000419F
:1003000000944FF0000B23F0004350EA01045ED04C
:1003100052EA03045BD0C3F30A54C1F30A552C44D8
:10032000A4F2F3340194A0FB0254C1F3130141F48D
:100330008011C3F3130343F4801301FB024400FB59
:10034000034E840A970A44EA815447EA8357A4FB80
:10035000076802958D0A05FB07854FEA932C04FB7D
:100360000C542705029D4FEA065847EA1637B5EBAD
:1003700008056EEB070C870E920E47EA811742EADA
:100380008312A7FB0201B6EB0B0164EB00042B0DFB
:1003900043EA0C335E1844EB1C50DA465146E7FB47
:1003A0000201C5F313044FEA0B3343EA14534FEA37
:1003B0000432019C43EA0603A4F10C040294009C5D
:1003C000CDE900B400F034F903B0BDE8F08F0020AF
:1003D0000146F9E72DE9F04D81EA030404F0004BF2
:1003E00021F0004514464FF0000A23F0004150EA86
:1003F000050220D054EA01021DD0C5F30A57024677
:10040000C5F31303C1F31300C1F30A5640F480157A
:1004100043F48013A7EB0608101BD64608F2FD38FC
:1004200073EB050002D308F1010801E092185B416B
:10043000B8F1000F03DA00200146BDE8F08D00207E
:100440004FF48011064684460EE0171B73EB050738
:1004500005D3121B63EB050306434CEA010C490864
:100460004FEA300092185B4150EA0107EDD152EAA1
:10047000030012D082EA040083EA0501084305D094
:10048000101BAB4106D20122002306E000224FF0F0
:10049000004302E06FF0010253101AEB06004CEB30
:1004A000085110EB0A0041EB0B01BDE8F04D00F0E4
:1004B000B0B8C10F80EAE0700844CA079623002153
:1004C00000F079B820F00040C10DC0F3160040F4F0
:1004D00000007F2901DA00207047962903DCC1F172
:1004E0009601C840704796398840704700F0004236
:1004F00030F000400AD0C10D01F56071C0F3160064
:1005000042EA0151C20840071143704700200146EA
:100510007047000030B5041E71F1000404DB4FF099
:100520000044404264EB0101141E73F1000405DB3A
:100530001C464FF00043524263EB04038B4208BF5A
:10054000824230BD01F0004330B421F0004150EA56
:10055000010206D00A0DA2F56072C1F31301002A50
:1005600002DC30BC00207047440F44EAC104C100E3
:10057000E01830BC00EBC25000F014B8002801DBDA
:10058000C0F10040002901DBC1F100418142704708
:10059000002801DBC0F10040002901DBC1F100416E
:1005A000884270470029A8BF7047401C490008BF17
:1005B00020F00100704710B4B0FA80FC00FA0CF093
:1005C00050EA010404BF10BC704749B1CCF12004CB
:1005D00021FA04F411FA0CF118BF01212143084358
:1005E000A3EB0C01CB1D4FEA00614FEA102042BF84
:1005F000002010BC704700EBC35010440029A4BF7A
:1006000010BC7047401C490008BF20F0010010BC1E
:10061000704710B5141E73F1000408DA401C41F154
:10062000000192185B411A4301D120F0010010BD76
:100630002DE9F04D92469B4611B1B1FA81F202E0EC
:10064000B0FA80F22032904600F04AF904460F4694
:1006500040EA0A0041EA0B0153465A46084313D0C8
:10066000114653EA010019D0C8F14002504600F08B
:1006700046F905460E4650465946424600F030F9C6
:10068000084305D0012004E020463946BDE8F08D3E
:100690000020054346EAE0762C4337430A98630579
:1006A000E40AA0EB08000022FD0A44EA47540A309D
:1006B00002D500200146E9E7010510196941DDE98D
:1006C000084500196941BDE8F04DA2E72DE9FE4F4C
:1006D000804681EA0300C00F0C46009021F00041E3
:1006E00023F00045B8EB0200A94105D2404621465F
:1006F00090461C460B46024623F00040104347D06C
:10070000270DC7F30A00C3F30A510290401A019063
:1007100040286BDAC3F3130040F4801B0098924624
:1007200020B10023D2EB030A63EB0B0B019859466F
:10073000C0F14002504600F0D3F806460D46504640
:100740005946019A00F0EBF810EB080061410024D3
:1007500087EA115284EAE7731A4340D0009A62B3E1
:10076000019A012A4FEA075215DC001B61EB0201D6
:100770004FF0004202EA0752CDE90042001C41F569
:10078000801132462B46FFF753FF03B0BDE8F08FD0
:1007900040462146F9E7001B61EB0201001C41F5D0
:1007A000801300185B412018A2F5001747EB0301E6
:1007B00040EAD570B6196D4111E06D084FEA360672
:1007C00045EAC0754FEA0752001B61EB0201001CAD
:1007D00041F5801149084FEA300000195141324675
:1007E0002B4603B0BDE8F04FFFF713BF009801227E
:1007F00040000023D0EB020263EBE0730098214637
:100800004FEAE074B8EB000061EB0401E9E783F024
:1008100000435BE781F0004158E72DE9F04D0023EC
:100820001A461B1A8A4103DB00200146BDE8F08D01
:10083000C1F30A52C1F3130141F480154FF0000BCC
:10084000D10702D100186D41521E0027044640F224
:10085000FF11384601EB620A3E4680460246002000
:100860004FF4801100F04BF8C2197141BB1846EBF0
:100870000100B4EB030C75EB000C04D3E41A65EB38
:10088000000517460E46241908F101006D41804607
:100890003428E3DDF91946EB0600091BA84103D211
:1008A0004FF0FF32134601E0002213461BEB070016
:1008B00046EB0A51BDE8F04DFFF7ABBE064C074DC5
:1008C00006E0E06840F0010394E807009847103420
:1008D000AC42F6D3FFF730FCC83D0008E83D000805
:1008E000202A04DB203A00FA02F1002070479140F0
:1008F000C2F1200320FA03F3194390407047202AE5
:1009000004DB203A21FA02F00021704721FA02F3B9
:10091000D040C2F120029140084319467047202A76
:1009200006DBCB17203A41FA02F043EAE07306E017
:1009300041FA02F3D040C2F1200291400843194627
:10094000704770B521F0004303430CD0C1F30A5542
:100950000024D5EB040564EB0403D617AD1AB341AC
:1009600002DB0020014670BD201841EB025170BD32
:100970000EB5C10F80EAE0700844CA07002140F2BA
:1009800033438DE80E000A460B46FFF751FE03B0D5
:1009900000BD0EB540F2334102910021CDE90011B6
:1009A0000A460B46FFF744FE03B000BD70B5C1F325
:1009B0000A5201F000450024C1F3130140F2FF3355
:1009C00041F480119A4201DA002070BD40F23343B5
:1009D0009A42A2F2334203DC5242FFF790FF00E05A
:1009E00090402C43F1D0404270BD000049488069DE
:1009F00040F40070474988610846806940F008006B
:100A000088610846806940F01000886142480068AB
:100A100020F0FF00404908604048006820F4702042
:100A20003E4908603B48C06840F400703949C860DE
:100A30000846C06820F40070C8600846406840F46A
:100A4000404048603648006820F47020344908600F
:100A50000846006840F480700860081D006840F097
:100A60000200091D08600846006840F46020086024
:100A70000846006840F480700860081D006840F473
:100A8000A010091D08600846006820F400200860D6
:100A9000081F0068234908432149091D08600846CA
:100AA000006840F00800086000BF1D48001D006895
:100AB00000F008000028F8D11948001D006840F037
:100AC00004001749091D086000BF1548001D006893
:100AD00000F004000028F8D111482830006820F404
:100AE00070000F49283108600D483030006840F030
:100AF00010000B49303108600948001D006840F4BF
:100B000080000749091D08600846006840F00100A0
:100B10000860704700100240000C014000100140C6
:100B2000042401400100800000200AE00021064A60
:100B300022F820104FF47A6102EB80025180411CB0
:100B4000C8B26428F2DB7047E000002010B5FFF760
:100B50004DFF00F071F810BD00B585B001210420F3
:100B600000F0DEFE0121480700F0CAFE1020ADF8BB
:100B7000100000208DF8130003208DF8120004A946
:100B80000D4800F0FFF810210B4800F0DAF90020C2
:100B9000009001900290022003906946002000F02E
:100BA00021F80121002000F009F80021084600F09A
:100BB00033F805B000BD00000008014039B1084A13
:100BC0001268012383401A43054B1A6006E0044A69
:100BD0001268012383409A43014B1A60704700005A
:100BE0000074004030B5002200230A4C226840F611
:100BF000FE748440A243D1E900452C438D682C4308
:100C0000CD6844EA050303FA00F42243014C226054
:100C100030BD00000074004008B500220092054A73
:100C2000009200F10802009B1A440092009A1160A1
:100C300008BD0000007400401A48406940F00100FF
:100C40001849486118481949086119484861012044
:100C5000C8600846806840F4805088600846806814
:100C600020F0010088600846806840F0200088601D
:100C70000846806820F0800088600846806820F080
:100C8000400088600846806840F4806088600846BC
:100C9000806840F4807088600846806840F00100F9
:100CA00088607047001002404C2401400000024060
:100CB000D400002010B5012000F036F8012807D13B
:100CC00004480068401C03490860012000F026F831
:100CD00010BD00001800002010B5022000F024F81C
:100CE00038B904480068801C02490860022000F0FE
:100CF00015F810BD1800002010B5042000F014F8FD
:100D000010B9042000F00AF810BD10B5082000F05A
:100D10000BF810B9082000F001F810BD0149086077
:100D20007047000014040140014600200022074BD8
:100D30001B6803EA0102054B14331B680B4013B117
:100D40000AB1012000E000207047000000040140CB
:100D50000549096821F01001034A1160114609682C
:100D6000014311607047000000200240014600204E
:100D7000034A106800F03800084310607047000014
:100D8000002002402DE9F041024600250026002007
:100D900000230024002791F803C00CF00F0591F800
:100DA00003C00CF0100CBCF1000F03D091F802C08E
:100DB0004CEA050591F800C0BCF1000F31D0146871
:100DC00000202BE04FF0010C0CFA00F3B1F800C04A
:100DD0000CEA03069E4220D183004FF00F0C0CFA60
:100DE00003F7BC4305FA03FC4CEA040491F803C082
:100DF000BCF1280F06D14FF0010C0CFA00FCC2F830
:100E000014C00AE091F803C0BCF1480F05D14FF0BF
:100E1000010C0CFA00FCC2F810C0401C0828D1D309
:100E20001460B1F800C0BCF1FF0F34DD546800203D
:100E30002EE000F1080C4FF0010808FA0CF3B1F8AD
:100E400000C00CEA03069E4221D183004FF00F0C34
:100E50000CFA03F7BC4305FA03FC4CEA040491F8CE
:100E600003C0BCF1280F05D100F1080C08FA0CF8FA
:100E7000C2F8148091F803C0BCF1480F07D100F10B
:100E8000080C4FF0010808FA0CF8C2F81080401C5A
:100E90000828CED35460BDE8F0810000F0B50A46C2
:100EA000002300240021002500F00046B6F1004F89
:100EB00002D11D4EF16901E01B4E7168C0F303457C
:100EC00083B200F44016B6F5401F08D121F07061DE
:100ED000154E766826F07066134F7E6012E000F4BF
:100EE0008016B6F5801F06D1032606FA05F4A14345
:100EF00041F0706106E0460D360103FA06F6B14393
:100F000041F0706122B1460D360103FA06F6314315
:100F100000F00046B6F1004F02D1034EF16101E04E
:100F2000014E7160F0BD000000000140024600204B
:100F300093680B400BB1012000E000207047416135
:100F400070470161704700000EB50121082000F0D4
:100F5000D7FC40F2E730ADF804003F20ADF80000C8
:100F60000020ADF80600ADF8020069460A4801F01D
:100F700055FA0121084801F0C9F801221146064836
:100F800001F0E7F80121044801F0C6F8012108202A
:100F900000F0B6FC0EBD0000000C00404448806923
:100FA00040F04000424988610846806940F00100F5
:100FB0008861404800686FF30F003E4908600846AA
:100FC000006840F0080008600846006840F08000B3
:100FD00008600846006840F4006008600846006841
:100FE00040F40040086033480C30006840F00100D5
:100FF00030490C3108600846006840F00200086083
:101000000846006840F0040008600846006840F0A8
:10101000080008602848806840F00400264988607D
:101020000846806840F0400088600846806840F4C8
:10103000806088600846806840F4804088601F486F
:10104000006840F001001D4908601C480C30006831
:1010500040F0010019490C3108601848006840F060
:1010600002001649086015480C30006840F0020084
:1010700012490C3108601148006840F004000F4923
:1010800008600E480C30006840F004000B490C3139
:1010900008600A48006840F00800084908600748EE
:1010A0000C30006840F0080004490C3108607047BB
:1010B00000100240001801400000014000040140FF
:1010C00030B589B03648007800284BD034480078D5
:1010D000012847D13348007BC0B1334800786328EA
:1010E00014DA324930480078401C31F8200040B909
:1010F0002D480078401C01EB80004088B0F57A6FE5
:1011000004D029480078401C274908702749264AFE
:10111000127801EB820149884EF66022501AFFF7DF
:10112000C8F904462149204A127831F8221001EB0F
:1011300081014800FFF7BDF905461D48806800237E
:101140001B4949681A4A1268CDE9011300920390BD
:1011500023462A46174905A802F070FB114805A945
:101160001EC91EC00F4908681349FFF711FA02D2C1
:1011700011480C4908600B4948680F49FFF708FA05
:1011800002D20D4807494860064988680A49FFF7B6
:10119000FFF902D208480349086009B030BD0000D9
:1011A0005E000020C40000205F000020E00000205E
:1011B000940000200000164300007A4410B53F4818
:1011C000007B00286BD13D4908680021FFF7E0F95A
:1011D0000AD83A490868FFF775F94FF080418887C7
:1011E00000203749088012E0344908680021FFF7E1
:1011F000C5F90CD200204FF0804188872F48006845
:1012000080F000442046FFF75DF92D4908802B4906
:1012100048680021FFF7BCF909D828494868FFF75A
:1012200051F94FF0804188860020088713E0234958
:1012300048680021FFF7A2F90DD200204FF080414D
:1012400088861E48406880F000442046FFF73AF93F
:101250004FF080410887194988680021FFF798F905
:1012600009D816498868FFF72DF91649088000202B
:10127000091D088020E0114988680021FFF77EF9E8
:101280001AD200200F4908800C48806880F0004482
:101290002046FFF717F90B49091D08800CE00020D4
:1012A0004FF08041888706490880090688860887AC
:1012B00004490880091D088010BD0000C4000020FA
:1012C000400000403404004010B54FF480711448D1
:1012D000FFF735FE052213492A2000F037FE0121D1
:1012E000212000F05BFE0121222000F057FE7D212D
:1012F000252000F053FE0421312000F04FFE0F2185
:10130000262000F04BFE0F21202000F047FE4FF476
:1013100080710348FFF715FE0A2000F05DFE10BD46
:10132000001C01407400002070B505464FF4807128
:101330001348FFF706FE00BF08211248FFF7F6FD2D
:101340000028F9D14FF480710D48FFF7F8FD072010
:1013500000F0E0FD04462146272000F01FFE04F0C7
:10136000400050B104222946612000F0ABFDFF216E
:10137000E22000F013FE402070BD0020FCE70000DA
:10138000001C01400014014070B5002100230F2211
:10139000C47804B3154C246804F4E064C4F5E06434
:1013A000210AC1F10403CA40447804FA03F18478A5
:1013B0001440214309010E4C0678A155047804F02D
:1013C0001F050124AC4005786D11AD0005F1E02545
:1013D000C5F8004109E0047804F01F050124AC4081
:1013E000044D0678761145F8264070BD0CED00E0FE
:1013F00000E400E080E100E002490143024A11609C
:10140000704700000000FA050CED00E02DE9F04304
:1014100089B004460D4616461F46DDE910890121B4
:10142000032000F06DFA0121042000F079FACF20AA
:10143000ADF8200018208DF8230003208DF822003D
:1014400008A94048FFF79EFC40F2E730ADF81800CD
:101450000320ADF814000020ADF81A00ADF8160016
:1014600005A94FF0804000F0D9FF05A9364800F0EB
:10147000D5FF6020ADF804000120ADF80600ADF8FE
:101480000A400020ADF80C0001A94FF0804000F0A8
:1014900069FE0821C80600F0B1FE0120ADF8060083
:1014A000ADF80A5001A9800700F0B2FE0821C80675
:1014B00000F000FF0120ADF80600ADF80A6001A9B8
:1014C000800700F005FF0821C80600F051FF012049
:1014D000ADF80600ADF80A7001A9800700F052FFD0
:1014E0000821C80600F08CFF0121880700F002FEE9
:1014F0000121880700F010FE0120ADF80600ADF8CC
:101500000A8001A9104800F02DFE08210E4800F0C5
:1015100075FE0120ADF80600ADF80A9001A90A4851
:1015200000F076FE0821084800F0C4FE01210648BC
:1015300000F0E0FD0121044800F0EEFD09B0BDE837
:10154000F0830000000801400004004010B54E4840
:10155000806940F400604C4988610846806940F029
:10156000010088610846806940F0400088610121DF
:101570004648FFF793FC4648006820F480504449F1
:1015800008600846006820F40050086008460068BB
:1015900020F0100008600846006820F02000086075
:1015A0000846006840F4804008600846006820F45F
:1015B000004008600846006840F0400008600846A7
:1015C000006820F0800008600020324908804FF653
:1015D000FF70091D08802F482838008820F44070CB
:1015E0002C49283908800846008820F060000880CF
:1015F00028481038008820F0020026491039088059
:101600000846008820F4007008800846008840F0F2
:10161000010008800846008840F4807008801D485A
:101620000838008820F002001A4908390880084666
:10163000008820F02000088016481038008840F00C
:10164000800014491039088012482038008820F0A2
:1016500004001049203908800846008840F0010045
:1016600008800846008840F00200088000200949F0
:10167000091F088007482838008840F00100054904
:101680002839088010BD000000100240C00016007C
:1016900004180140282C01404948C06940F004006A
:1016A0004749C8610846806940F00800886145489C
:1016B000006820F08070434908600846006820F008
:1016C000007008600846006820F0805008600846F6
:1016D000006820F0005008600846006840F0806014
:1016E00008600846006820F000600860084600684E
:1016F00040F0804008600846006820F00040086024
:101700000020314908804FF6FF70091D08802E48DF
:101710002838008820F440702B4928390880084672
:10172000008820F06000088027481038008820F0EA
:1017300002002549103908800846008820F400700E
:1017400008800846008840F00100088008460088AC
:1017500040F4807008801C480838008820F002009F
:101760001949083908800846008820F020000880C0
:1017700015481038008840F080001349103908805F
:1017800011482038008820F004000F4920390880D3
:101790000846008840F0010008800846008840F0B4
:1017A0000200088000200849091F088006482838E0
:1017B000008840F001000449283908807047000083
:1017C00000100240000C0140280800404948806990
:1017D00040F40050474988610846806940F0100095
:1017E00088614548006820F08070434908600846D9
:1017F000006820F0007008600846006820F0805003
:1018000008600846006820F000500860084600683C
:1018100040F0806008600846006820F000600860C2
:101820000846006840F0804008600846006820F0E4
:10183000004008600020314908804FF6FF70091D04
:1018400008802E482838008820F440702B49283919
:1018500008800846008820F060000880274810387B
:10186000008820F0020025491039088008460088C9
:1018700020F4007008800846008840F001000880CD
:101880000846008840F4807008801C4808380088AA
:1018900020F002001949083908800846008820F025
:1018A0002000088015481038008840F08000134957
:1018B0001039088011482038008820F004000F49B2
:1018C000203908800846008840F00100088008465A
:1018D000008840F00200088000200849091F0880A5
:1018E00006482838008840F001000449283908805B
:1018F00070470000001002400010014028340140F1
:1019000029B1064AD2690243044BDA6104E0034A72
:10191000D2698243014BDA61704700000010024037
:1019200029B1064A92690243044B9A6104E0034AD2
:1019300092698243014B9A61704700000010024097
:101940000F48006840F001000D49086008464068F3
:101950000C4908400A494860084600680A4908409E
:10196000074908600846006820F48020086008469F
:10197000406820F4FE0048604FF41F008860704704
:10198000001002400000FFF8FFFFF6FE30B5002116
:101990000022002400232D4D6D6805F00C0121B1BB
:1019A000042905D0082923D105E0294D056022E04E
:1019B000274D05601FE0254D6D6805F47012234D1D
:1019C0006D6805F48034022505EB92421CB9214D67
:1019D000554305600BE01D4D6D6805F400351DB1E4
:1019E0001C4D5543056002E0194D5543056002E06A
:1019F000174D056000BF00BF144D6D6805F0F00184
:101A00000909154D6B5C0568DD4045600F4D6D683B
:101A100005F4E061090A104D6B5C4568DD408560A6
:101A20000A4D6D6805F46051C90A0B4D6B5C456841
:101A3000DD40C560054D6D6805F44041890B074DDB
:101A40006B5CC568B5FBF3F5056130BD0010024065
:101A500000127A0000093D00790000208900002072
:101A600010B501460022002300204A11012A02D1AC
:101A7000094C236806E0022A02D1074C236A01E0E0
:101A8000054C636A01F01F02012494401C400CB114
:101A9000012000E0002010BD001002400248406814
:101AA00000F00C00704700000010024001460020CA
:101AB000034A506820F0F00008435060704700006F
:101AC00000100240014908607047000000004242D7
:101AD00010B5FFF735FF0120FFF7F4FF00BF21200D
:101AE000FFF7BEFF0028FAD00020FFF7DFFF00203D
:101AF00000F02EF84FF4806000F01EF80220FFF78F
:101B000035F91020FFF724F94FF46011002000F0A0
:101B100031F8012000F028F800BF3920FFF7A0FFBE
:101B20000028FAD0022000F033F800BFFFF7B6FF1C
:101B30000828FBD110BD000001460020034A506870
:101B400020F4E0600843506070470000001002403D
:101B500001460020034A506820F4605040EAC1006A
:101B6000506070470010024001490866704700004D
:101B70000000424202460020044B586820F47C10CA
:101B800042EA01031843014B5860704700100240BD
:101B900001460020034A506820F0030008435060CB
:101BA000704700000010024038B56846FFF7BCFBE4
:101BB0000446402C34D19DF8000088B99DF80100FE
:101BC00070B99DF8020058B99DF8030040B9FEF7BE
:101BD000ABFF0120134908700020134908701FE073
:101BE0001048007864281BDA9DF801009DF8001069
:101BF00040EA01200D490B4A127821F822009DF895
:101C000003009DF8021040EA01200849054A1278B5
:101C100001EB8201488003480078401C01490870AC
:101C200038BD0000660000205F000020E0000020BA
:101C300010B500F0C5F8FFF747FBFEF775FF10BDC4
:101C400008B54FF4C060FFF7D7FB34208DF80000D3
:101C500000208DF801008DF8020001208DF80300AE
:101C60006846FFF791FB32208DF8000000208DF8C8
:101C7000010001208DF802008DF803006846FFF78F
:101C800083FB25208DF8000000208DF80100022044
:101C90008DF8020001208DF803006846FFF774FB01
:101CA00006208DF8000003208DF8010001208DF83A
:101CB00002008DF803006846FFF766FB07208DF8E9
:101CC000000000208DF8010003208DF802000120A3
:101CD0008DF803006846FFF757FB08208DF80000D9
:101CE00001208DF801008DF802008DF80300684690
:101CF000FFF74AFB09208DF8000001208DF8010054
:101D000002208DF8020001208DF803006846FFF7DD
:101D10003BFB08BD1CB5FFF719FCFFF757FDFFF7AC
:101D2000BBFC002000900346024601460190FFF7ED
:101D30006DFB4FF4E13000F025FD4FF4E13000F091
:101D40006DFCFEF703FFFFF729F9FFF7FDF81CBD57
:101D500021B1028842F04002028004E002884FF67E
:101D6000BF731A40028070470246002013890B405F
:101D70000BB1012000E000207047014688897047C0
:101D80008181704710B50022028802F441520B880D
:101D90004C8823438C882343CC8823430C892343DA
:101DA0004C8923438C892343CC8923431A430280E3
:101DB000838B4FF2FF74234083830B8A038210BD11
:101DC00000B587B00121A820FFF7AAFD01218803F3
:101DD000FFF796FD4FF46040ADF8040001208DF848
:101DE000060018208DF8070001A92448FEF7CAFF55
:101DF0004FF44070ADF8040001208DF8060010206B
:101E00008DF8070001A91E48FEF7BCFF0820ADF8B9
:101E1000040001208DF8060048208DF8070001A974
:101E20001848FEF7AFFF4FF400711548FFF789F827
:101E30000020ADF808004FF48270ADF80A000020D1
:101E4000ADF80C00ADF80E00ADF810004FF40070C6
:101E5000ADF812000820ADF814000020ADF816000F
:101E60000720ADF8180002A90748FFF78BFF0121F2
:101E70000548FFF76DFF07B000BD0000000C0140F2
:101E8000001C0140001401400038004010B5044619
:101E900000BF02210A48FFF767FF0028F9D021465A
:101EA0000748FFF76DFF00BF01210548FFF75CFF02
:101EB0000028F9D00248FFF760FFC0B210BD000053
:101EC000003800402DE9F04107460D4616464FF414
:101ED00080710F48FFF733F84FF400710C48FFF79B
:101EE0002EF83846FFF7D2FF8046002405E0FF2099
:101EF000FFF7CCFF2855601CC4B2B442F7DB4FF4A7
:101F000000710348FFF71DF84046BDE8F08100006E
:101F1000001C014070B504464FF480710A48FFF779
:101F20000EF84FF400710848FFF709F82046FFF754
:101F3000ADFFFF20FFF7AAFF05464FF400710248EE
:101F4000FEF7FFFF284670BD001C01402DE9F0415F
:101F500007460C4615464FF480710F48FEF7EFFF19
:101F60004FF400710C48FEF7EAFF3846FFF78EFF8A
:101F70008046002605E014F8010BFFF787FF701C70
:101F8000C6B2AE42F7DB4FF400710348FEF7D9FF4B
:101F90004046BDE8F0810000001C014070B50546D8
:101FA0000C464FF480710B48FEF7C9FF4FF40071E7
:101FB0000848FEF7C4FF2846FFF768FF064620469C
:101FC000FFF764FF4FF400710248FEF7BAFF304696
:101FD00070BD0000001C01404FF6FF124FF0E023DF
:101FE0005A6100229A611A46126942F001021A618E
:101FF00000BF4FF0E022116901F480320AB1421EA5
:1020000090B20028F5D14FF0E022126922F00102CF
:102010004FF0E0231A61704710B501212B4800F002
:1020200087F8002850D02A480068401C28490860DA
:1020300028480068401C274908602548006864213A
:10204000B0FBF1F201FB120028B92348006880F0D0
:102050000100214908601F4800681E4800680A21E5
:10206000B0FBF1F201FB120078B901201B490870A6
:102070001748006844F62061884206D9184800785D
:1020800018B1FFF71DF8FFF799F8124800683221E0
:10209000B0FBF1F201FB120048B912480088124966
:1020A00008801248008848801148008888800948C4
:1020B0000068642804D307480068002005490860C8
:1020C0000121024800F025F810BD0000000C00407E
:1020D00020000020140000200C0C01405E000020B5
:1020E0001C000020242C014060000020243401400A
:1020F0002408004021B1028842F08002028004E0FE
:1021000002884FF67F731A4002807047CA430282EA
:102110007047CA430282704721B1028842F001022F
:10212000028004E002884FF6FE731A400280704776
:1021300030B50246002000230024158A05EA010379
:10214000958905EA010413B10CB1012000E00020DB
:1021500030BD1AB183890B43838102E083898B43AD
:102160008381704770B5002400220023058C4FF650
:10217000FE7635400584028C8388048B4FF68F757C
:102180002C40B51E2C400D882C43751E2A400D890D
:102190002A434D882A43144DA8420BD0134DA84220
:1021A00008D0134DA84205D0124DA84202D0124DBE
:1021B000A84213D14FF6F7752A404D892A434FF6AE
:1021C000FB752A408D882A434FF6FF652B404FF65A
:1021D000FF552B408D892B43CD892B43838004836E
:1021E000CD888586028470BD002C014000340140FA
:1021F0000040014000440140004801400A460021DF
:10220000018B4FF6F77319401143018370470000AB
:1022100070B5002400220023058C4FF6EF76354080
:102220000584028C8388048B48F6FF752C404FF69A
:10223000FF452C400D884FF6FF7606EA05252C4316
:102240004FF6DF752A400D8906EA05152A434D88A9
:1022500006EA05152A43154DA84202D0144DA8429E
:102260001DD14FF67F752A404D894FF6FF7606EA5D
:1022700005152A434FF6BF752A408D8806EA0515D5
:102280002A434FF6FF352B404FF2FF752B408D89C7
:1022900006EA85052B43CD8906EA85052B43838015
:1022A0000483CD880587028470BD0000002C0140A6
:1022B000003401400A460021018B4FF2FF731940A0
:1022C0004FF6FF7303EA02231943018370470000AE
:1022D00070B5002400220023058C4FF6FF663540C0
:1022E0000584028C8388848B4FF68F752C404FF6C3
:1022F000FC752C400D882C434FF6FF552A400D8964
:102300004FF6FF7606EA05252A434D8806EA05259D
:102310002A43154DA84202D0144DA8421DD14FF2B8
:10232000FF752A404D894FF6FF7606EA05252A43B8
:102330004FF6FF352A408D8806EA05252A434EF6DA
:10234000FF752B404DF6FF752B408D8906EA05156C
:102350002B43CD8906EA05152B4383808483CD88E2
:102360008587028470BD0000002C014000340140CC
:102370000A460021818B4FF6F77319401143818380
:102380007047000070B5002200230024058C4EF633
:10239000FF7635400584038C8488828B48F6FF7570
:1023A0002A404FF6FF452A400D884FF6FF7606EA91
:1023B00005252A434DF6FF752B400D8906EA0535A4
:1023C0002B434D8806EA05352B430B4DA84202D01E
:1023D0000A4DA84208D14BF6FF752C408D894FF667
:1023E000FF7606EA85152C4384808283CD88A0F889
:1023F0004050038470BD0000002C014000340140B7
:102400000A460021818B4FF2FF7319404FF6FF738C
:1024100003EA0223194381837047000000220288E7
:102420001D4B98420ED01D4B98420BD0B0F1804FFF
:1024300008D01B4B984205D01A4B984202D01A4B39
:10244000984204D14FF68F731A404B881A43174BAA
:10245000984207D0164B984204D04FF6FF431A40DB
:10246000CB881A4302808B8883850B8803850A4BAF
:1024700098420BD0094B984208D00E4B984205D099
:102480000D4B984202D00D4B984201D10B7A038636
:102490000123838270470000002C0140003401407A
:1024A0000004004000080040000C00400010004004
:1024B0000014004000400140004401400048014039
:1024C00010B508214D4800F0C3F958B108214C4817
:1024D00000F09AF9494800F083FA00204949087051
:1024E0004949087040F22551444800F0BEF90128DE
:1024F0007CD140F22551414800F08FF93F4800F06F
:102500006FFA4249087040480078052870D2DFE829
:1025100000F0031429404E003C4800780D2808D1F3
:1025200039480078401C3849087001203549087046
:1025300002E00020344908705EE0344800780A2840
:1025400008D10020324908702F480078401C2E49DD
:10255000087006E02D4800780D2802D000202A4996
:10256000087049E0294800782A49294A1278885495
:1025700027480078401C264908700846007818282B
:1025800006DB0020087020480078401C1E490870B7
:1025900032E01E4800780A2805D11B480078401C0C
:1025A0001949087002E000201749087024E0174814
:1025B00000780D2816D1174800681749886015481B
:1025C0004068C8601348806808611248C06880F09D
:1025D000004008600F48006980F0004048600D48E6
:1025E0004069486100200849087005E005E0FFE700
:1025F00000200549087000BF00BF10BD004C00401E
:10260000004400401C0000202F0000202E0000206D
:1026100030000020AC0000209400002010B586B0EF
:10262000044601211020FFF77BF90121C804FFF7C0
:1026300067F94FF48060ADF8140018208DF817008A
:1026400003208DF8160005A91548FEF79BFB4FF4F3
:102650000060ADF8140004208DF8170005A910489B
:10266000FEF790FB01940020ADF80800ADF80A00D9
:10267000ADF80C00ADF810000C20ADF80E0001A96B
:10268000084800F041F9012240F22551054800F0C8
:1026900016F90121034800F0CFF806B010BD000084
:1026A00000100140004C004010B540F225512E486A
:1026B00000F0DBF8012855D140F225512A4800F0FE
:1026C000ACF8294800F08CF92849087028480078AF
:1026D00020B1012813D002283FD129E023480078F7
:1026E000452808D122480078401C21490870002064
:1026F0002049087002E000201D49087031E01B48A5
:1027000000781C490978C1F103011B4A505419484B
:102710000078401C1749087008460078042806DB3A
:102720000020087012480078401C1149087018E019
:102730000E480078532804D10F4800680F490860FC
:1027400007E00A480078442803D10B4800680C4988
:10275000086000200649087003E000200449087062
:1027600000BF00BF10BD0000003801402400002061
:102770002C0000202D000020280000200000002058
:102780000400002010B586B00446012144F2040084
:10279000FFF7C6F84FF40070ADF8140018208DF85C
:1027A000170003208DF8160005A91548FEF7EAFA70
:1027B0004FF48060ADF8140004208DF8170005A9CF
:1027C0000F48FEF7DFFA01940020ADF80800ADF8DD
:1027D0000A00ADF80C00ADF810000C20ADF80E00AA
:1027E00001A9084800F090F8012240F2255105485F
:1027F00000F065F80121034800F01EF806B010BD96
:10280000000801400038014001F40072B2F5007F79
:1028100000D100BFCA430280704710B500220023D8
:1028200040F66A14A14200D100BF0A12012494406C
:10283000A3B2DC43048010BD21B1828942F400526E
:10284000828104E082894DF6FF731A4082817047CD
:1028500002460020B1F5007F00D100BF13880B4075
:102860000BB1012000E00020704770B50246002443
:1028700000230025002040F66A16B14200D100BFB7
:10288000C1F3421501F01F03012606FA03F3012DDF
:1028900002D19689334006E0022D02D1168A3340D8
:1028A00001E0968A33400C12012606FA04F41688D9
:1028B000344013B10CB1012000E0002070BDF0B530
:1028C0000346002400260025002040F66A17B9427E
:1028D00000D100BF1846C1F3421401F01F060127C2
:1028E00007FA06F5012C01D10C3004E0022C01D1CD
:1028F000103000E014301AB107682F43076002E07F
:102900000768AF430760F0BD2DE9F04786B0054684
:102910000E460024A24600BFA1460027B08900B1A0
:1029200000BF2F462C8A4CF6FF700440F088044309
:102930002C82AC894EF6F3100440B08831890843EC
:10294000718908430443AC81AC8A4FF6FF400440D0
:10295000B0890443AC8201A8FFF718F81F488742EA
:1029600002D1DDF810A001E0DDF80CA0A88900F488
:10297000004040B10AEBCA0000EB0A103168490080
:10298000B0FBF1F807E00AEBCA0000EB0A1031686F
:102990008900B0FBF1F86420B8FBF0F004012009D5
:1029A000642101FB1089A88900F4004040B1322065
:1029B00000EBC900B0FBF1F000F00700044308E0B1
:1029C000322000EB09106421B0FBF1F000F00F00A1
:1029D00004432C8106B0BDE8F087000000380140B8
:1029E00001468888C0F308007047490050EAC120BA
:1029F00018BF04204A0D18BF40F0010040F2FF72DA
:102A0000B2EB515F08BF40F00200012808BF05206B
:102A1000704700002DE9F74F144694B00021C4E937
:102A200002111599079121F00045C9498D4206DC34
:102A30001599C4E9000117B00020BDE8F08FC54921
:102A4000DFF814A3A9423CDD0799C44E0029C44F06
:102A5000C44A1599534619DDFDF7D9FE554506D0F0
:102A6000C14AC24BFDF7D3FEC4E900010AE04FF0B2
:102A7000D352BE4BFDF7CBFE32463B46FDF7C7FEB9
:102A8000C4E9000117B00120BDE8F08FFDF71EFE7C
:102A9000554506D0B44AB54BFDF718FEC4E9000110
:102AA0000AE04FF0D352B14BFDF710FE32463B46E1
:102AB000FDF70CFEC4E9000117B04FF0FF30BDE890
:102AC000F08FAB49A942159978DB21F0004183468C
:102AD0008846A84AA84BFDF70BFC0022A74BFDF740
:102AE000F5FDFDF763FF0990FDF742FF06460F462F
:102AF0009C4A5346FDF7FCFB43465A46FDF78AFEC7
:102B000080468A46984A994B30463946FDF7F0FB95
:102B10002A0D01250B9242465346FDF77BFE032DFD
:102B2000C4E9000139D00B98C1F30A51401A05EBF2
:102B300045111139814230DA9148C346784400EB9F
:102B40000510CDF80CA00C90D0E900233046394692
:102B5000FDF7CEFB02460B460491069058460399BA
:102B6000FDF755FE80468A4602460B4658460399B5
:102B7000FDF74DFE049B069AFDF749FE83460C982F
:102B800003913946D0E902233046FDF7B1FB5A469E
:102B9000039BFDF73CFE6D1CBDE707980028A2BF14
:102BA000099817B0BDE8F08F616881F0004161605D
:102BB000099817B04042BDE8F08FFFE784461598AA
:102BC000C1F31301C0F30A50A0F2F5304FEA6018C8
:102BD00000F01F06C6F12000139000200690079019
:102BE00041F4801E05206D4676B1664A08EB00016F
:102BF0007A4452F8213002EB8101B3404A681399BC
:102C000022FA01F1194305E05F4908EB000279441B
:102C100051F82210A1FB0E27A1FB0C131A449A4273
:102C200034BF0123002303EB070A05EB8003D3E93C
:102C300001B70F448F4234BF0121002193448B44DC
:102C400011B1934502D903E0934501D2012100E07F
:102C50000021C3E901B7514445F82010011EA0F13D
:102C60000100C1DC0298059F00F10050800F129016
:102C70000298DDE903568000FDF77AFE8346284678
:102C80000D91FDF786FE6FF01D02FDF75AFECDE9AE
:102C90000E013046FDF77DFE6FF03D02FDF751FE5F
:102CA00080468A463846FDF774FE6FF05D02FDF7F8
:102CB00048FE0746424653461191FDF707FDDDE900
:102CC0000E23FDF703FD5A460D9BFDF7FFFC002583
:102CD0000E465A4628460D9BFDF799FDDDE90E2369
:102CE000FDF795FD42465346FDF791FD3A46119B8F
:102CF000FDF790FDDFF898A0244A5346FDF7F8FA57
:102D000007468846234A244B31462846FDF7F0FA09
:102D10003A464346FDF7DAFC074688464FF0A8429C
:102D2000534631462846FDF7E3FA3A464346FDF757
:102D3000CDFC159A12F0004F04D0129A81F0004198
:102D400052421292C4E90001129817B0BDE8F08F08
:102D5000FB21E93F7CD90240FB21F93F7370032E30
:102D60008A19A33B000040543163621A61B4D03D1C
:102D7000FB21394183C8C96D305FE43F0000E03F6B
:102D80009811000014110000F6100000182D445492
:102D9000FB21F93D3326A611460B113C2DE9FF4DD1
:102DA00021F0004807460C46B8F1795F08DAFDF7D4
:102DB000FDFD002801BF0020324904B0BDE8F08DC0
:102DC0003A46234610461946FDF792FA0546024652
:102DD0002D480E460B460621784400F05DF82A4641
:102DE0003346FDF785FADDE9022382468B463846F5
:102DF0002146FDF77DFA04460F4652465B462846BB
:102E00003146FDF775FA22463B46FDF700FD0746C1
:102E10008A464FF0FF3228463146FDF792FD1B4AA5
:102E200090450ADA3A465346FDF7F1FC04B0002219
:102E3000BDE8F04D134BFDF7EDBC154A4245A8BF68
:102E4000A8F500154FF00004B8BF124D22462B46DE
:102E5000FDF7DDFC0646884622462B460020094940
:102E6000FDF7D5FC04460D463A46534630464146EA
:102E7000FDF7CDFC04B022462B46BDE8F04DFDF732
:102E8000C9BC00000000F03FC40E00003333D33F44
:102E90000000E93F0000D23F2DE9F0414F1E00EB5A
:102EA000C7010446D1E9000115461E4637F0060267
:102EB0000DD02A463346FDF71BFA7F1E04EBC703ED
:102EC000D3E90023FDF702FC37F00602F1D1022F0F
:102ED00025D0042F13D0062F18BFBDE8F0812A4655
:102EE0003346FDF705FAD4E90A23FDF7EFFB2A463E
:102EF0003346FDF7FDF9D4E90823FDF7E7FB2A4641
:102F00003346FDF7F5F9D4E90623FDF7DFFB2A4642
:102F10003346FDF7EDF9D4E90423FDF7D7FB2A4644
:102F20003346FDF7E5F9D4E90223FDF7CFFB2A4646
:102F30003346FDF7DDF9D4E90023BDE8F041FDF7A4
:102F4000C5BB00002DE9FF4D054621F0004084B0CF
:102F50000C46B0F1795F0BDA2846FFF746FD0428EE
:102F600008BF00F071F8284608B02146BDE8F08D92
:102F70002A460B461046FDF7BBF906460F462A4681
:102F80002346FDF7B5F9804626488A4632463B4639
:102F900005217844FFF780FF83461098029160B3C3
:102FA000214A224B40465146FDF7A2F9CDE90001E6
:102FB0005A4640465146029BFDF79AF9824688469A
:102FC000DDE906014FF0FF32FDF7BBFC52464346F8
:102FD000FDF71DFC32463B46FDF78AF9DDE9062385
:102FE000FDF715FCDDE90023FDF711FC08B02A46CA
:102FF0002346BDE8F04DFDF70DBC0B465A46304662
:103000003946FDF775F9084A084BFDF75FFB424664
:103010005346FDF76DF908B02A462346BDE8F04D4A
:10302000FDF754BB0A0E0000495555555555C5BF0F
:103030000122FDF786BCFDF749BB0022134610466E
:103040001146FDF7C7B90000024A00201107FDF73D
:1030500078BC000001FDFFFF02E008C8121F08C194
:10306000002AFAD170477047002001E001C1121F09
:10307000002AFBD17047000001490860704700003A
:10308000900000202DE9F84F04460D4621F0004045
:1030900000917349814211DC7249884201DC06D1FA
:1030A0002CB120462946BDE8F84FFFF7C1BF6E4856
:1030B000002DCCBF6D496E49BDE8F88F6D49814246
:1030C00011DD6D498142D8BF4FF0FF366DDD2046DE
:1030D0002946FFF78AFC042808BFFFF7B5FF204602
:1030E0002946BDE8F88F6549654F25F000458142C6
:1030F00033DD6449814219DD002632464FF08043BA
:1031000020462946FDF7E2FA80468A4601222046FB
:103110002946FDF716FC00223B46FDF778FB4246A8
:103120005346FDF757F904460D463EE001260022BE
:10313000BA463B4620462946FDF7C8FA80460F4668
:103140000022534620462946FDF761FB42463B4696
:10315000FDF740F904460D4627E04B4981421BDD4F
:10316000DFF828A102260022534620462946FDF713
:10317000BFF800223B46FDF7A9FA80460F46002221
:10318000534620462946FDF742FB42463B46FDF7A3
:1031900021F904460D4608E0032622462B4600206E
:1031A0003B49FDF717F904460D4622462B461046CB
:1031B0001946FDF79DF88B46824602460B46FDF701
:1031C00097F807460246334888460B46062178445E
:1031D000FFF762FE52465B46FDF78AF882462E48AC
:1031E0008B463A46434605217844FFF755FE3A465A
:1031F0004346FDF77DF802460B46002E50465946E1
:103200000CDAFDF763FA22462B46FDF771F801B0A0
:1032100022462B46BDE8F04FFDF7FCBAFDF756FA03
:1032200022462B46FDF764F81C4A7A4402EBC6039B
:10323000D3E90023FDF7EBFA22462B46FDF7E7FA28
:10324000174A7A4402EBC603D3E90023FDF7E2FAFA
:10325000009A002AB8BF81F00041BDE8F88F000055
:10326000000010440000F07F182D4454FB21F93F6A
:10327000FB21F9BF0000DC3F0000203E0000F33FCF
:103280000000F03F0000E63F008003400000F83FF0
:103290000000F0BF9E0A00005C0A0000FA0900006E
:1032A000C20900002DE9F04D9446CCF1000423F052
:1032B00000464CEA0404524F46EAD4749A468846C3
:1032C00021F00042BC4206D8454240EA050442EAE9
:1032D000D474BC4204D9BDE8F04D6246FFF7ABBEE2
:1032E000AAF14055A5F17F6555EA0C040BD00224E4
:1032F00004EAAA74434DDFF810E144EAD87452EAB4
:10330000000B04D00CE0BDE8F04DFFF7BBBE002C75
:1033100014BF012CBDE8F08D022C30D0032C32D02C
:1033200056EA0C0B0AD0BE4220D1BA4209D126F08F
:10333000804622F080423346114617E000291ADB0E
:1033400025E0DFF8C8B0FB44002C04BFDBE9000136
:10335000BDE8F08D012C02BFDBE9000181F00041E6
:10336000BDE8F08D022C0AD0032C0CD0BA4212D149
:10337000B8F1000F0BDA23482549BDE8F08D284647
:103380002449BDE8F08D28467146BDE8F08D1D4802
:103390002149BDE8F08D921B12153C2AC4BF194883
:1033A0001D490EDCBAF1000FBEBF12F13C0F002028
:1033B000014606DB6246FDF70DF821F00041FFF7FC
:1033C00061FE002C08BFBDE8F08D012C04BF81F028
:1033D0000041BDE8F08D114A114B022C07D0FDF7DA
:1033E00016FA2A46BDE8F04D0A4BFDF710BAFDF774
:1033F0000EFA2A46BDE8F04D064BFDF70BBA000069
:103400000000F07F182D4454FB2109C086090000FC
:10341000FB21F9BFFB210940FB21F93F075C143375
:1034200026A6A13C2DE9FF4F89B0814614469A4655
:1034300020461699FCF7E6FE044600BF2F492046B9
:10344000FCF718FF2E490290FCF7E2FE8346FDF7D9
:103450004DF8074600F02EF90546FDF773F8039086
:103460000A99FCF7D5FE51460490FCF779FE0590C9
:1034700024492046FCF774FE20490190FCF7FAFE2F
:103480001F490290FCF7C4FE8346FDF72FF805465E
:1034900000F010F90746FDF755F803900A99FCF77C
:1034A000B7FE51460490FCF75BFE06902146154896
:1034B000FCF7A8FE11490190FCF7DCFE10490290D0
:1034C000FCF7A6FE0390FDF711F8054600F0F2F8B0
:1034D0000746FDF737F804900A99FCF799FE8346F2
:1034E0005146FCF73DFE079000208DF8200005A80E
:1034F0000FC889E80F000DB0BDE8F08F000034431D
:10350000D00F49400000F0422DE9F04F95B007463A
:10351000884691469A46DDF878B020980090584841
:103520001F9B026857480168484600F011F905469C
:10353000294655480068FCF713FE53490860534874
:1035400001682846FCF75EFE139050480560002095
:103550001399FCF75DFE0C904B4801680020FCF7C6
:1035600057FE29460A904FF07E50FCF751FE099015
:103570000A99FCF7F5FD0B900C99FCF7F1FD119001
:1035800043491198FDF704F802D24148119006E032
:1035900040491198FCF7F2FF01D23E4811908AF0A1
:1035A000004059460C90FCF7DBFD044621463A48A2
:1035B0000068FCF7D5FD38490860384801682046A6
:1035C000FCF720FE12903548046000201299FCF7A9
:1035D0001FFE0C90304801680020FCF719FE2146C0
:1035E0000A902F48FCF714FE09900A99FCF7B8FDE1
:1035F0000B900C99FCF7B4FD06462A493046FCF7BF
:10360000C7FF01D2274E05E027493046FCF7B6FF39
:1036100000D2254E48461199FCF7A2FD2349089097
:103620001198FCF727FE22490090FCF7F1FD01906C
:10363000FCF75CFFCDE9020100F03CF8CDE90401A4
:10364000FCF780FF014606904046FCF713FE334628
:10365000CDF800B00790014609A8089AFFF7E2FEEE
:1036600009A80FC8CDE90F23CDE90D0100208DF881
:1036700040000DA80FC887E80F0015B0BDE8F08F17
:1036800038000020340000203C00002044000020CE
:1036900000003442000034C24000002048000020F6
:1036A0000000204100007A4400007AC40000344346
:1036B000D00F494000B5244B21F0004287B09A4218
:1036C000DCBF0022134629DD204B9A4208D140B9C5
:1036D0004FF00100FFF7D0FCFFF7AFFC07B000BDD3
:1036E00003DBFFF7A5FC07B000BD02AAFFF792F9C4
:1036F00010F0030104BF0DF1080C9CE80F000DD081
:10370000012001290ED0022914D00DF1080C0090DF
:103710009CE80F00FFF716FC07B000BDFFF73EFB6B
:1037200007B000BD0DF1080C00909CE80F00FFF7FA
:1037300009FC05E00DF1080C9CE80F00FFF72EFBDB
:1037400007B081F0004100BDFB21E93F0000F07FA0
:103750002DE9FF4F85B00C4615461E4629490598B0
:10376000FCF7FEFC059028490598FCF711FF04D2F0
:1037700026490598FCF746FD059025490598FCF774
:10378000FDFE04D221490598FCF7EAFC05901E498C
:103790000598FCF76FFD07461E49FCF739FD0590BB
:1037A0000598FCF7A3FECDE90001FFF783FF07466C
:1037B000FCF7C8FE82460598FCF798FECDE90001AB
:1037C00000F0AAF90746FCF7BDFE834631462046C5
:1037D000FCF718FD039028461299FCF713FD0290A0
:1037E00058460299FCF714FD074650460399FCF72A
:1037F0000FFD80463946FCF7B3FC8146484609B0C8
:10380000BDE8F08F0000B442000034430000B44330
:10381000000034C3D00F4940FEF75AF9FEF708FA0A
:10382000FEF778FAFEF70CFAFDF796F90021084644
:1038300000F058F901E0FEF7B7F9FCE72DE9FF4F7A
:1038400095B0074690469946DDF894B0DDE92245EB
:1038500000200F9021464046FCF7D4FC0190FCF775
:1038600045FECDE9040129464846FCF7CBFC019012
:10387000FCF73CFECDE90201DDE90423FFF712FD70
:10388000CDE90601FCF75EFE8A490990FCF7F2FCDF
:1038900089490A90FCF7BCFC0E908848006888496A
:1038A000086088490E98FCF7ADFC23464A4641461D
:1038B00000950A90FFF74CFF804908608248007825
:1038C00010B30846006880F0004008907C4801680A
:1038D0000898FCF745FC4FF07E510990FCF798FCE6
:1038E0007A490A90FCF7C6FC824651464FF07C505C
:1038F000FCF78EFC51460990FCF78AFC74490A904B
:10390000FCF7B8FC0F9004E001206F49087000201C
:103910000F9070480078C8B90F98FCF7E7FDCDE923
:10392000080166480068FCF7E1FD21F00041CDE99F
:103930000601DDE90823FCF7EDFD07D80120654904
:103940000870002064490860644908606148007894
:1039500000287DD059480068FCF7C8FD21F00041DF
:10396000CDE90601FCF7EEFD0A9054480068FCF72B
:10397000BDFD21F0004100224FF08043CDE9000160
:10398000FCF7B6FC0022564BCDE90201FCF7B0FC77
:10399000CDE9040100F010F9CDE90601FCF7D2FDF4
:1039A0000890464801680898FCF732FC09900A998B
:1039B000FCF760FC0D9051460D98FCF723FC064681
:1039C000314645480068FCF7CBFB43490860434853
:1039D00001683046FCF716FC0C9040480660002059
:1039E0000C99FCF715FC0A903B4801680020FCF795
:1039F0000FFC314608904FF07E50FCF709FC079011
:103A00000899FCF7ADFB09900A99FCF7A9FB0B900C
:103A10000B990D98FCF7A4FB0D9028480068FCF763
:103A200065FD21F0004100222D4BCDE90801FCF796
:103A300071FD10D25046FCF759FD21F000410022E3
:103A4000274BCDE90801FCF765FD04D2012000E019
:103A50001AE08DF84C0000208DF84C00CDE900B440
:103A6000029507A8249BDDE90D12FFF74DFD07A87D
:103A70000FC8CDE91223CDE9100110A80FC887E8BF
:103A80000F0019B0BDE8F08F00208DF84C00CDE993
:103A900000B4029507A8249B0E9A1699FFF734FDEF
:103AA00007A80FC810AE0FC610A80FC887E80F00F0
:103AB00000BFE6E7D00F4940000034434C0000202F
:103AC000580000200000B4425D0000200AD7233CCB
:103AD0000000C8425C00002050000020540000207C
:103AE00000005940064A1060064A11600022064B49
:103AF0001A60064B1A60064B1A60064B1A60704734
:103B00003400002038000020400000203C0000204D
:103B1000440000204800002000B5254B21F0004261
:103B200087B09A4203DC0022134600922BE0214B1F
:103B30009A4208D140B94FF00100FFF79DFAFFF714
:103B40007CFA07B000BD03DBFFF772FA07B000BDD7
:103B500002AAFEF75FFF10F003014FF001000DD045
:103B6000012914D002291AD00DF1080C9CE80F008D
:103B7000FFF714F907B081F0004100BD0DF1080C0A
:103B800000909CE80F00FFF7DDF907B000BD0DF1D4
:103B9000080C9CE80F00FFF701F907B000BD0DF11C
:103BA000080C00909CE80F00FFF7CCF9E2E700005A
:103BB000FB21E93F0000F07F2DE9F04106460F466A
:103BC000FCF72BFE04000D4618BF0120284320F00F
:103BD0000040C0F17F6000F1E040C00F0ED0301C0B
:103BE00018BF0120384320F00040C0F17F6000F191
:103BF000E040C00F04BF0120FFF73EFA20462946EF
:103C0000BDE8F081000000004FBB610567ACDD3FFF
:103C1000182D4454FB21E93F9BF681D20B73EF3FF3
:103C2000182D4454FB21F93FE2652F227F2B7A3C6B
:103C3000075C143326A6813CBDCBF07A8807703C24
:103C4000075C143326A6913CC4EB98999999C9BF97
:103C5000711623FEC671BCBF6D9A74AFF2B0B3BFCC
:103C60009AFDDE522DDEADBF2F6C6A2C44B4A2BF8C
:103C70000D5555555555D53FFF8300922449C23FF8
:103C80006E204CC5CD45B73F513DD0A0660DB13F2C
:103C9000EB0D76244B7BA93F11DA22E33AAD903F3E
:103CA0004C5555555555A53F7751C1166CC156BF5A
:103CB0009015CB19A001FA3EAD529C804F7E92BE6A
:103CC000C4B1B4BD9EEE213ED43888BEE9FAA8BD89
:103CD000000000000000000000004054FB21F93FFC
:103CE0003163621A61B4D03D0000601A61B4D03D06
:103CF0007370032E8A19A33B0000002E8A19A33B80
:103D0000C14920259A837B39000000000000000093
:103D10006E83F9A22915444ED15727FCC0DD34F536
:103D2000999562DB4190433CAB6351FE61C5BBDEBC
:103D30003A6E24B7E0D24D42EA2E49061C92D109D0
:103D40001CEB1DFE3EA729B1F53582E88444BB2E4D
:103D500026709CE9417E5FB439D69139F43953839A
:103D60008B5F849C3B28F9BDFF97F81F0F9805DEF9
:103D70008B112FEF1F6D0A5ACF7E366DB709CB27F7
:103D8000663F464F2DEA5F9EC7BA27757BF1E5EB8C
:103D9000F739073DEA92528AB15FFB6B085D8D1FD0
:103DA000A6F810111111813FD561C119A0012ABFD8
:103DB0007DFEB157E31DC73EEB9C2B8AE6E55ABE5C
:103DC0007CD5CF5A3AD9E53DE83D000800000020F7
:103DD00094000000583000087C3E00089400002049
:103DE000DC05000068300008000000000000000052
:103DF00000000000000000000000000000000000C3
:103E000000000000000000000000000000000000B2
:103E100000000000000000000000000000000000A2
:103E20000000000000000000000000000000000092
:103E30000000000000000000000000000000000082
:103E40000000000000000000000000000000010071
:103E50000000000000000034431010013443101033
:103E60000100000000010203040102030406070828
:0C3E700009020406080000000000000029
:0400000508000131BD
:00000001FF
